{
    "contractName": "MicroTransaction",
    "abi": [
        {
            "constant": true,
            "inputs": [],
            "name": "lenderId",
            "outputs": [
                {
                    "name": "",
                    "type": "uint256"
                }
            ],
            "payable": false,
            "stateMutability": "view",
            "type": "function"
        },
        {
            "constant": true,
            "inputs": [
                {
                    "name": "",
                    "type": "uint256"
                }
            ],
            "name": "lenders",
            "outputs": [
                {
                    "name": "amount",
                    "type": "uint256"
                },
                {
                    "name": "lender_address",
                    "type": "address"
                },
                {
                    "name": "loanId",
                    "type": "uint256"
                }
            ],
            "payable": false,
            "stateMutability": "view",
            "type": "function"
        },
        {
            "constant": true,
            "inputs": [],
            "name": "loanId",
            "outputs": [
                {
                    "name": "",
                    "type": "uint256"
                }
            ],
            "payable": false,
            "stateMutability": "view",
            "type": "function"
        },
        {
            "constant": true,
            "inputs": [
                {
                    "name": "",
                    "type": "uint256"
                }
            ],
            "name": "loans",
            "outputs": [
                {
                    "name": "resolved",
                    "type": "bool"
                },
                {
                    "name": "got_full_amount",
                    "type": "bool"
                },
                {
                    "name": "borrower_address",
                    "type": "address"
                },
                {
                    "name": "amount_recieved",
                    "type": "uint256"
                },
                {
                    "name": "requested_amount",
                    "type": "uint256"
                }
            ],
            "payable": false,
            "stateMutability": "view",
            "type": "function"
        },
        {
            "anonymous": false,
            "inputs": [
                {
                    "indexed": true,
                    "name": "loanId",
                    "type": "uint256"
                }
            ],
            "name": "NewLoan",
            "type": "event"
        },
        {
            "constant": false,
            "inputs": [
                {
                    "name": "requested_amount",
                    "type": "uint256"
                }
            ],
            "name": "createALoan",
            "outputs": [],
            "payable": false,
            "stateMutability": "nonpayable",
            "type": "function"
        },
        {
            "constant": false,
            "inputs": [
                {
                    "name": "_loanId",
                    "type": "uint256"
                },
                {
                    "name": "paying_amount",
                    "type": "uint256"
                }
            ],
            "name": "lendALoan",
            "outputs": [],
            "payable": true,
            "stateMutability": "payable",
            "type": "function"
        }
    ],
    "bytecode": "0x608060405234801561001057600080fd5b506107d3806100206000396000f3fe6080604052600436106100555760003560e01c80633e2eb0d61461005a578063593602d414610092578063929eea21146100bd578063c8a919f314610146578063c95669a514610181578063e1ec3c68146101ac575b600080fd5b6100906004803603604081101561007057600080fd5b81019080803590602001909291908035906020019092919050505061024b565b005b34801561009e57600080fd5b506100a761050a565b6040518082815260200191505060405180910390f35b3480156100c957600080fd5b506100f6600480360360208110156100e057600080fd5b8101908080359060200190929190505050610510565b604051808481526020018373ffffffffffffffffffffffffffffffffffffffff1673ffffffffffffffffffffffffffffffffffffffff168152602001828152602001935050505060405180910390f35b34801561015257600080fd5b5061017f6004803603602081101561016957600080fd5b810190808035906020019092919050505061055a565b005b34801561018d57600080fd5b5061019661069d565b6040518082815260200191505060405180910390f35b3480156101b857600080fd5b506101e5600480360360208110156101cf57600080fd5b81019080803590602001909291905050506106a3565b6040518086151515158152602001851515151581526020018473ffffffffffffffffffffffffffffffffffffffff1673ffffffffffffffffffffffffffffffffffffffff1681526020018381526020018281526020019550505050505060405180910390f35b6000600360008481526020019081526020016000209050600015158160000160009054906101000a900460ff161515146102ed576040517f08c379a000000000000000000000000000000000000000000000000000000000815260040180806020018281038252601d8152602001807f4c6f616e204974656d20697320616c7265616479207265736f6c76656400000081525060200191505060405180910390fd5b6002548310610364576040517f08c379a00000000000000000000000000000000000000000000000000000000081526004018080602001828103825260148152602001807f456e7465722070726f706572206c6f616e20496400000000000000000000000081525060200191505060405180910390fd5b81816001015401816002015410156103e4576040517f08c379a000000000000000000000000000000000000000000000000000000000815260040180806020018281038252601c8152602001807f416d6f756e74206973206d6f7265207468616e2072657175697265640000000081525060200191505060405180910390fd5b60405180606001604052808381526020013373ffffffffffffffffffffffffffffffffffffffff1681526020018481525060016000805481526020019081526020016000206000820151816000015560208201518160010160006101000a81548173ffffffffffffffffffffffffffffffffffffffff021916908373ffffffffffffffffffffffffffffffffffffffff160217905550604082015181600201559050506104b58160000160029054906101000a900473ffffffffffffffffffffffffffffffffffffffff1634610713565b600080815480929190600101919050555081816001015401816001018190555080600201548282600101540114156105055760018160000160016101000a81548160ff0219169083151502179055505b505050565b60005481565b60016020528060005260406000206000915090508060000154908060010160009054906101000a900473ffffffffffffffffffffffffffffffffffffffff16908060020154905083565b61056261075e565b6040518060a001604052806000151581526020016000151581526020013373ffffffffffffffffffffffffffffffffffffffff168152602001600081526020018381525090508060036000600254815260200190815260200160002060008201518160000160006101000a81548160ff02191690831515021790555060208201518160000160016101000a81548160ff02191690831515021790555060408201518160000160026101000a81548173ffffffffffffffffffffffffffffffffffffffff021916908373ffffffffffffffffffffffffffffffffffffffff160217905550606082015181600101556080820151816002015590505060026000815480929190600101919050557f160cc13023a17c18b7feadb7112b90a65588f20461635de00a9a32dbfaf0f46560405160405180910390a25050565b60025481565b60036020528060005260406000206000915090508060000160009054906101000a900460ff16908060000160019054906101000a900460ff16908060000160029054906101000a900473ffffffffffffffffffffffffffffffffffffffff16908060010154908060020154905085565b8173ffffffffffffffffffffffffffffffffffffffff166108fc829081150290604051600060405180830381858888f19350505050158015610759573d6000803e3d6000fd5b505050565b6040518060a00160405280600015158152602001600015158152602001600073ffffffffffffffffffffffffffffffffffffffff1681526020016000815260200160008152509056fea165627a7a7230582059bb81022743ae9bd2e9022cdba917f68111eadb5b111b5a1215673f2278db5e0029",
    "source": "pragma solidity ^0.5.7;\n\ncontract MicroTransaction {\n\n    //Lender \n    struct Lender{\n        uint256 amount;\n        address lender_address;\n        uint256 loanId;\n    }\n\n    uint256 public lenderId;\n\n    mapping(uint256 => Lender) public lenders;\n    \n\n    //   Structure of a loan\n    struct Loan{\n        bool resolved;\n        bool got_full_amount;\n        address borrower_address;\n        uint256 amount_recieved;\n        uint256 requested_amount;\n    }\n\n    uint256 public loanId;\n\n    mapping(uint256 => Loan) public loans;\n\n    event NewLoan (\n        uint256 indexed loanId\n    );\n\n    /**\n    * @dev Put up an Loan request in the market\n    * @param requested_amount amount the user wants to borrow\n    */\n    function createALoan(uint256 requested_amount) public {\n        Loan memory loan = Loan(false, false, msg.sender, 0, requested_amount);\n\n        // Persist `loanItem` object to the \"permanent\" storage\n        loans[loanId] = loan;\n\n        // emit an event to notify the clients\n        emit NewLoan(loanId++);\n    }\n\n    /**\n    * @dev Lend a Loan\n    * @param _loanId id of the loan to lend\n    * @param paying_amount amount that the lender wants to pay\n    */\n    function lendALoan(uint256 _loanId,uint256 paying_amount) public payable{\n        // Retrieve `loanItem` object from the storage\n        Loan storage loan = loans[_loanId];\n\n        // Assert that property is active\n        require(\n            loan.resolved == false,\n            \"Loan Item is already resolved\"\n        );\n\n        require(\n            _loanId < loanId,\n            \"Enter proper loan Id\"\n        );\n\n        \n        require(\n            (loan.requested_amount >= (loan.amount_recieved + paying_amount)),\n            \"Amount is more than required\"\n        );\n\n        // create the lender object \n        lenders[lenderId] = Lender(paying_amount, msg.sender, _loanId);\n\n        // store the lender object id to the Loan\n        _sendFunds(loan.borrower_address, msg.value);\n\n        lenderId++;\n\n        loan.amount_recieved = loan.amount_recieved + paying_amount;\n\n        // if the borrower has received the full amount\n        if(loan.amount_recieved + paying_amount == loan.requested_amount){\n            loan.got_full_amount = true;\n        }\n    }\n\n  \n    function _sendFunds (address beneficiary, uint256 value) internal {\n        // address(uint160()) is a weird solidity quirk\n        // Read more here: https://solidity.readthedocs.io/en/v0.5.10/050-breaking-changes.html?highlight=address%20payable#explicitness-requirements\n        address(uint160(beneficiary)).transfer(value);\n    }\n}\n",
    "sourcePath": "/home/nitya/projects/eth/matic/dapp_ethindia/contracts/MicroTransaction.sol",
    "compiler": {
        "name": "solc",
        "version": "0.5.7+commit.6da8b019.Emscripten.clang"
    },
    "schemaVersion": "3.0.11",
    "updatedAt": "2019-08-04T05:52:42.134Z",
    "devdoc": {
        "methods": {
            "createALoan(uint256)": {
                "details": "Put up an Loan request in the market",
                "params": {
                    "requested_amount": "amount the user wants to borrow"
                }
            },
            "lendALoan(uint256,uint256)": {
                "details": "Lend a Loan",
                "params": {
                    "_loanId": "id of the loan to lend",
                    "paying_amount": "amount that the lender wants to pay"
                }
            }
        }
    },
    "userdoc": {
        "methods": {}
    }
}